:020000040800F2
:10000000B00E00203502000821440008913B000892
:100010001D440008E11C0008D54E00080000000047
:10002000000000000000000000000000A1470008E0
:10003000411E00080000000075470008E94700085D
:100040004F0200084F0200084F0200084F0200084C
:100050004F0200084F0200084F0200084F0200083C
:100060004F0200084F0200084F0200084F0200082C
:100070004F0200084F0200084F0200084F0200081C
:100080004F0200084F0200084F0200084F0200080C
:100090004F0200084F0200084F0200084F020008FC
:1000A0004F0200084F0200084F0200084F020008EC
:1000B0004F0200084F020008594800084F0200088C
:1000C0004F0200084F0200084F0200084F020008CC
:1000D0004F020008C54E00084F0200084F020008FA
:1000E0004F0200084F0200084F02000800F002F81B
:1000F00000F090F80AA090E8000C82448344AAF132
:100100000107DA4501D100F085F8AFF2090EBAE82F
:100110000F0013F0010F18BFFB1A43F0010318473B
:100120001066000030660000103A24BF78C878C11D
:10013000FAD8520724BF30C830C144BF04680C60ED
:10014000704700000023002400250026103A28BF35
:1001500078C1FBD8520728BF30C148BF0B60704739
:100160006E2900F06883702900F07781662905F018
:10017000DC85652905F0D985672905F0D6856129D3
:1001800005F0D58503681B0A28BF41F08001692965
:1001900000F0E880642900F0E580752900F0E28035
:1001A0006F2900F05C86782900F04381E92900F08E
:1001B000F785E42900F0F485F52900F0F185EF29B1
:1001C00000F05986F82900F042810368DB0928BF56
:1001D00041F08001632900F07885732900F07D8566
:1001E000E32901F06980F32901F06E800020704757
:1001F0001FB500F04FFE04000020002105F0DAF9E1
:10020000401C60600020002105F0EAF9E0601FBD9D
:1002100010B510BD01F0EFF81146FFF7E9FF04F04B
:100220009DFF01F00DF903B4FFF7F2FF03BC01F0ED
:1002300011F900000948804709480047FEE7FEE73A
:10024000FEE7FEE7FEE7FEE7FEE7FEE7FEE7FEE786
:1002500004480549054A064B704700005748000806
:10026000ED000008B0080020B00E0020B00A002009
:10027000B00A00201CB50C46064B7B446946009032
:10028000204600F000FD04460020694600F00EFD07
:1002900020461CBD2F0A00000FB41CB5084B06AA4F
:1002A0007B4469460090059800F0EDFC0446002070
:1002B000694600F0FBFC20461CBC5DF814FB000006
:1002C000090A000070B5044685690068C10601D5B9
:1002D000302600E02026C00707D070BDD4E90121F8
:1002E00030469047206A401C20626D1EF6D570BDD6
:1002F00070B5044685690078C00707D170BDD4E9A0
:10030000012120209047206A401C20626D1EF6D5F6
:1003100070BD70B50C460546012A05D028788006C8
:1003200000D5EA69002302E0012305E05B1C93424B
:1003300002D2E05C0028F9D1A869E618C01AA861C9
:10034000286A184428622846FFF7BCFF04E0D5E974
:10035000012114F8010B9047B442F8D32846FFF767
:10036000C7FF70BD2DE9F0410646002410687529CD
:10037000314616A510D000F0F3F9002802DA404209
:1003800013A507E031688A0701D512A502E04907E5
:1003900004D511A5012401E000F0EBF900210A22A7
:1003A00006F1240709E0B0FBF2FCB0FBF2F302FB1C
:1003B0001C00303078541846491C0028F3D12346DD
:1003C0002A463046BDE8F04100F0DCB900000000EC
:1003D0002D0000002B00000020000000F0B40D46AE
:1003E0000188090502D5214C7C4402E01F4C7C4465
:1003F0000E34002100F1240608E002F00F07120974
:10040000E75D42EA03721B097754491C52EA03076D
:10041000F3D102780023120704D5702D06D009B15C
:10042000022311342246F0BC00F0ACB90123103491
:10043000F8E770B504460D462146106800F099F9BA
:10044000024629462046BDE870400023C6E7D21D7B
:1004500022F00703D3E90023C0E70368126843F0E2
:10046000200303600823C3610023B7E7E4610000B1
:100470002DE9F05F894604464FF0000ADFF874B1B9
:10048000FB44C0F820A02046E1688847002874D0CB
:10049000252806D0D4E901219047206A401C20621B
:1004A000F1E700265F462046E16888472028054698
:1004B00007DB312D05D2781910F8200C08B106435E
:1004C000F1E7B00701D526F00406C4F81CA0002708
:1004D000C4F818A02A2D09D0284604F02DFD38B301
:1004E00004EB8708303DC8F8185019E059F8041B90
:1004F000204604EB87029161E1688847012F054699
:1005000018D1E069002820DA26F020061DE0D8F88E
:10051000180000EB800005EB40003038C8F81800E8
:100520002046E1688847054604F006FD0028EED124
:10053000012F0AD02E2D08D12046E16888477F1C64
:100540000546022F46F02006C4DBA069002803DA26
:10055000404246F00106A061F00701D026F01006E7
:100560006C2D0BD0682D09D04C2D39D06A2D35D08B
:10057000742D35D07A2D33D016E038E0E1682F465F
:1005800020468847B842054609D16C2F26D04FF443
:100590008060E168064320468847054604E06C2FEA
:1005A0001AD04FF4807006430DB3A5F1410019280D
:1005B00002D8203546F400664A4629462046266081
:1005C0004E46FFF7CDFD80B101280BD0F61D26F079
:1005D000070000F1080956E74020E4E78020D8E74B
:1005E0000020D6E706F104094DE7284652E7206AC5
:1005F000BDE8F09F7461000010B5431C02E010F8E4
:10060000011B71B18107FAD14FF0013202C88C1A77
:100610008C4314EAC211F9D0C01A0A0603D0C01ED6
:1006200010BDC01A10BD0A0401D0801E10BD090201
:10063000FCD0401E10BD4FF000020429C0F0128013
:1006400010F0030C00F01B80CCF1040CBCF1020F85
:1006500018BF00F8012BA8BF20F8022BA1EB0C015A
:1006600000F00DB85FEAC17C24BF00F8012B00F850
:10067000012B48BF00F8012B70474FF0000200B576
:10068000134694469646203922BFA0E80C50A0E8B5
:100690000C50B1F12001BFF4F7AF090728BFA0E863
:1006A0000C5048BF0CC05DF804EB890028BF40F82F
:1006B000042B08BF704748BF20F8022B11F0804F71
:1006C00018BF00F8012B70474FF0013C50F8042B85
:1006D00051F8043B9A4221D1A2EB0C03934313EA55
:1006E000CC1317D150F8042B51F8043B9A4215D182
:1006F000A2EB0C03934313EACC130BD150F8042B59
:1007000051F8043B9A4209D1A2EB0C03934313EA3C
:10071000CC13DBD04FF00000704700BFD01A01BAF5
:10072000B1FA81F101F0180122FA01F0CB40C1F1D8
:100730002001DBB2C0B2C01A2CFA01F3D11A9143E6
:1007400011EAC311E6D17047704770477047000047
:1007500010B500F09FFB001D10BD00BF594E0000FA
:1007600009684A0501D540B27047C905FCD500B2F9
:10077000704709684A0501D5C0B27047C905FCD564
:1007800080B270472DE9F0470D46994692460446DF
:1007900000F124080168880604D5E06921F0100101
:1007A000216000E00120A84201DD471B00E0002796
:1007B000A1697A1902EB0900081AA0612078C00625
:1007C00002D42046FFF77EFD002608E0D4E901218F
:1007D0001AF806009047206A401C761C20624E459D
:1007E000F4DB2078C0060AD52046FFF76BFD06E053
:1007F000D4E9012130209047206A401C2062381E35
:10080000A7F10107F4DC07E0D4E9012118F805009D
:100810009047206A401C2062281EA5F10105F3DCE8
:100820002046FFF765FD2078000602D50220BDE8CE
:10083000F0870120FBE711680268006A530501D5C3
:1008400008700AE0D30501D5088006E0130603D539
:10085000C217C1E9000200E008600120704770473C
:100860002DE9FF4F0C461E464FF0FF378BB0D2E903
:100870000001DDF860800A908A46C1F30A5505B987
:100880003D46002108464FF00000BAF1000F00F489
:10089000400005DA00EB80004FF4400101EA50000F
:1008A0004FEA9059B9F1010F00DDB9460A9850EAB4
:1008B0004A000ED044F61050A5F2FF3545432F14E0
:1008C000B8F1000F1ED07542291E1EDDC9F10002CD
:1008D0001CE0B8F1010F4FF0000001D0302103E01F
:1008E000F24305E02154401CB042FBDB30460022BD
:1008F000002121540B99C1F80880C1E900200FB0F4
:10090000BDE8F08FBD1B6D1CDEE74A4600DA694288
:1009100006A800F0DDFC06AB93E8070003AB83E814
:10092000070050460A9900F09BFD8DE80700A0F5EE
:1009300000501F3800900398002D0ADD42F21F017D
:100940004A460844002303A90390684601F004F8CE
:1009500009E0A0F500504A461F38002303A9039080
:10096000684601F00EF88DE807000004000C03D083
:100970004FF0FF30410800E01046B8F1000F03D0FF
:100980000022009215461EE0751E05D400F086FA7E
:10099000303262556D1EF9D5B3460122084302D0AC
:1009A00000227F1C04E02078302801D100227F1E25
:1009B000002A099784D01DE0112D07DA00F06EFAA5
:1009C000303262556D1C50EA0102F5D1084302D065
:1009D0000098C8B10EE00021681E05E0235C625C4F
:1009E00063542254401E491C8142F7DBAB46A81BCE
:1009F000401E0990002004F80B000B98099AC0F8DB
:100A00000880C0E9002B7AE711264FF0000857E76D
:100A10002DE9F04F88460446D21D22F0070191B01F
:100A2000D1E90001CDE90A0104F056FA02460B981B
:100A3000C00F01D02D2007E02068810701D52B20B1
:100A400002E0202101EAC000032A099001D0072A10
:100A500005DB03464146204600F0E4FB0BE120782D
:100A6000800601D5E06900E00620B8F1650F8146F7
:100A700006D0B8F1660F18D0B8F1670F70D131E029
:100A80000020B9F1110F009001DB112301E009F101
:100A900001030AAA01A90CA8FFF7E2FEDDE90C7028
:100AA000002609F10105834647E001204B460090EE
:100AB0004FF000470AAA01A90CA8FFF7D1FEDDE913
:100AC0000DB00C995D46002610B909F101000D1812
:100AD000B9EB050003D4C0F1FF3609F10105A5EB20
:100AE00009002BE0B9F1010F01DA4FF001090020F4
:100AF000B9F1110F0090484601DD112300E00346D3
:100B00000AAA01A90CA8FFF7ABFEDDE90C704D465F
:100B100000268346207800070AD4AB4500DA5D46FC
:100B200001A8012D04DD411911F8011C302907D05D
:100B30004F4502DA17F1040F04DA012082460FE074
:100B40006D1EEEE7002F02DCED1B3E4403E0781C37
:100B5000A84200DD7D1CB81B00F1010A4FF00047E0
:100B60002078000703D4AA4501DB4FF0FF3A0021AB
:100B7000B7F1004F0DF143088DF8431024D0022047
:100B80002B23002F01DA7F422D230A21021EA0F120
:100B9000010000DC5FB197FBF1FC97FBF1F201FB78
:100BA0001C7C17460CF1300C08F801CDEEE7A8F1DB
:100BB000010003702188090501D5452100E0652168
:100BC000A0F1010800F8011C09980FA9A1EB080782
:100BD000FF1D00B10120411901EBEA70A169384401
:100BE000081A401EA0612078C00602D42046FFF7F4
:100BF00069FB099828B1D4E901219047206A401C7B
:100C000020622078C00622D52046FFF75BFB1EE05D
:100C1000002E04DBB34502DD01A8805D00E030203A
:100C2000D4E901219047206A401C2062761CAAF179
:100C300001005FEA000A0AD100F02CF9C0680168DF
:100C4000405CD4E901219047206A401C2062281EA4
:100C5000A5F10105DCDC07E0D4E9012118F8010B5E
:100C60009047206A401C2062381EA7F10107F3DC80
:100C70002046FFF73DFB032011B041E601694A1C05
:100C800002610878704700B58FB0CDE901310021CD
:100C9000059105497944CDE9031011466846FFF7EF
:100CA000E7FB0FB000BD0000E5FFFFFF0A6802F898
:100CB000010B0A60704710B5436913B1AFF30080B0
:100CC00001E0FFF726FB012010BD127800F124019E
:100CD0000A7000224A700122EDE711684FF0FF32DE
:100CE000E9E700002DE9FF5F15468A460446DFF874
:100CF000AC80F8440027D8E900103E46CDE900104A
:100D000010E03AF816106A4602A800F053FB411CA6
:100D100007D02178890603D5E269391891420DD8A8
:100D20000744761C2078800602D5E069B84205DDCC
:100D3000AE42E6DB3AF816000028E2D1A069C01BFB
:100D4000A0612046FFF7BEFAD8E90010CDE90010F7
:100D5000002017E03AF818106A4602A800F02AFBB3
:100D6000B0F1FF3F81460BD000250DF1080B05E0E7
:100D7000D4E901211BF8050090476D1C4D45F7D3C0
:100D800008F10100B0428046E4DB206A384420626A
:100D90002046FFF7ADFABDE8FF9F0000165900009E
:100DA0002DE9F0418046D21D22F007020025D2E94C
:100DB0000002F52915A614D0011E72F1000106DA11
:100DC0000023D0EB030063EB020211A608E0D8F881
:100DD00000108B0701D50FA602E0490701D50EA62A
:100DE00001251146002408F1240704E000F056F81C
:100DF00030323A55641C50EA0102F7D12B46324694
:100E000021464046BDE8F041FFF7BCBC00000000B1
:100E10002D0000002B0000002000000030B4002155
:100E200000F1240408E002F00705D208303542EA58
:100E30004372DB086554491C52EA0305F3D1046888
:100E4000002310A2250707D5A40600D421B1C46948
:100E500001230DA2641EC46130BCFFF793BC10B522
:100E6000044621461068FFF784FC02462046BDE890
:100E700010400023D2E7D21D22F00701D1E9002360
:100E8000CCE7000000000000300000000048704780
:100E90004C080020004870476C08002030B5B0F1C5
:100EA0000A024FEA900E71F100034EEA817EB0EB28
:100EB0000E0061EB91014FEA101E4EEA017E10EB2D
:100EC0000E0041EB11114FEA102E4EEA016E10EBAD
:100ED0000E0041EB11214FEA104E4EEA014E10EB8D
:100EE0000E0041EB1141401841F100014FEAD000E2
:100EF00040EA41704FEAD10110EB80054FEA8104CE
:100F000044EA907444EB01046D1944EB0404521B51
:100F1000A3414FF0000348BF0A3200D530BD401C4A
:100F200041F1000130BD00002DE9F04F04460D46AF
:100F3000D21D22F0070089B0D0E900974846394613
:100F400003F0CAFF0246F80F01D02D2307E0206806
:100F5000810701D52B2302E0202101EAC0038DF88F
:100F600020300BB1012000E00020032A824601D08E
:100F7000072A04DB2946204600F054F93FE1207897
:100F8000800601D40D2500E0E569C7F30A560D2D52
:100F900049DA00214FEA175B08464FF00000002FA6
:100FA00000F4400007DA00EB80004FF4400100EB52
:100FB000D07001EA60008115012901DD4FF0FF3199
:100FC00000224FEA850CBCF1180F06D31346ACF192
:100FD00018004FF08052C24003E04FF4801323FA10
:100FE0000CF30CF10C0CBCF1200F04D3ACF1200C71
:100FF00009FA0CF001E007FA0CF000294FF0004864
:1010000001DD18B90FE00ED140450CD319EB0209F0
:101010005F4121B9404502D19F4329EA0209BBEB58
:10102000175F00D0761C2088000502D57B487844E5
:1010300002E07A487844193808AA302302F80A30C6
:10104000037C0AF10101002E0AF1020A53546A4698
:1010500002DC4FF0300101E04FF031014FF00108A8
:101060008DF8001002D0A6F2FF3603E059EA4701DE
:1010700000D06B4E002D02DC2178090704D54FF01B
:1010800002082E218DF80110C44600210BE0C7F3A1
:1010900003433F01C35C491C6D1E02F8083005295B
:1010A00008F1010801DA002DF1DC00210CE000EB71
:1010B0001973491C1B786D1E082902F808304FEA85
:1010C000091908F1010801DA002DF0DC21688B060E
:1010D00002D516E0A8F10108E04505DD02EB0803A2
:1010E00013F8013C302BF5D0B8F1000F09DD02EB0D
:1010F000080313F8013C2E2B03D1090701D4A8F1F2
:101100000108002D05DD3E2102F808106D1E08F1D2
:101110000108407C002E02F8080008F1010804DAFA
:101120002D20764202F8080002E02B2002F8080089
:101130000A214FF47A70864208F101080BDB96FB16
:10114000F0F3303302F8083096FBF0F308F10108B1
:1011500000FB136601E0642E0CDB642096FBF0F3C9
:10116000303302F8083096FBF0F308F1010800FB79
:10117000136601E00A2E06DB96FBF1F0303002F830
:10118000080008F1010896FBF1F001FB1060303017
:1011900002F80800A16908F1010808EB050202EB5A
:1011A0000A00081AA0612078C00602D42046FFF782
:1011B00089F8216A08AE01EB0A00206204E0D4E954
:1011C000012116F8010B9047BAF1010AF7D22078F5
:1011D000C00602D52046FFF775F86E4609E016F8FE
:1011E000010B3E280FD0D4E901219047206A401C12
:1011F0002062B8F10108F2D22046FFF779F809B071
:101200000320BDE8F08F206A2844206203E0D4E97F
:101210000121302090476D1EEBD3F8E7F555000013
:1012200002FCFFFF2DE9F0411F460446032601683A
:10123000072A01F4006004DB08B116A505E016A535
:1012400003E008B115A500E015A521F0100020600D
:10125000A069C01EA0610FB1401EA0612046FFF72B
:1012600031F84FB1D4E9012138469047206A401C3B
:101270002062C01C206206E0206AFAE7D4E901215E
:1012800015F8010B9047761EF8D22046FFF730F88C
:10129000BDE8F0814E414E006E616E00494E460041
:1012A000696E660010B5436913B1AFF3008001E0C9
:1012B000FFF718FD012010BD128800F1240182847F
:1012C0000022C2840122EDE711684FF0FF32E9E706
:1012D0002DE9F047814616468AB0354878440DC856
:1012E0008DE80D0032487844801C03AC0DC884E8BA
:1012F0000D0041F69B300844372190FBF1F290FB42
:10130000F1F5A5F1800501FB12041B3C02D56442F6
:10131000012000E00020DFF898A080460027FA4472
:10132000AAF1BE0A0EE0E0070AD03246684607EB93
:10133000470101230AEB810100F023FB8DE8070040
:1013400064107F1C002CEED1194F7F44AE3F19E092
:10135000E80715D007EB04100DF1180A90E80E000D
:101360008AE80E00C068F04201D198190890324610
:10137000012306A903A800F004FB03AB83E80700E0
:101380006D10641C002DE3D14FF001033246694615
:10139000B8F1000F03A802D000F0DEFA01E000F07F
:1013A000F0FAC9E90001C9F808200AB0BDE8F087E1
:1013B000D853000070B516460C460546FFF7C8F92D
:1013C000036893F80101012806D0FF2C0FD8185D9F
:1013D00068B101202C7070BDD3F807013246214658
:1013E00003F2071303442846BDE8704018474FF046
:1013F000FF3070BD70477546FFF748FDAE460500EB
:101400006946534620F00700854618B020B5FEF720
:101410001FFFBDE820404FF000064FF000074FF0DF
:1014200000084FF0000B21F00701AC46ACE8C00902
:10143000ACE8C009ACE8C009ACE8C0098D4670470B
:1014400010B50446AFF300802046BDE81040FEF71B
:10145000EABE000001491820ABBEFEE726000200EC
:101460005FEA400C08BF91F0000F4FEA8C234FEA6F
:10147000C12243EA51514FEA1C5018BF00F5F04019
:101480004FEA300018BF41F000415FEA6C5C00F0A9
:101490002980BCF1FF3F08BF40F080407047130C2B
:1014A00006BF12044FF0100C4FF0000C130E04BFD7
:1014B00012020CF1080C130F04BF12010CF1040C02
:1014C000930F04BF92000CF1020CD30F04BF520023
:1014D0000CF1010C11464FF00002A0F11F00A0EB2F
:1014E0000C00704711F0004F08BF704731F0004109
:1014F0003FF4D5AF0B0C06BF09044FF0100C4FF0B2
:10150000000C0B0E04BF09020CF1080C0B0F04BFFA
:1015100009010CF1040C8B0F04BF89000CF1020CC3
:10152000CB0F04BF49000CF1010CCCF12003A0EB60
:101530000C0022FA03F302FA0CF241EA030100F173
:101540000100704720F07F4C80EA030023F07F47C2
:10155000ACEB070303F57C5300F0004003F1FF03FD
:101560002DE980494FEA154B09B44FEA144325EAA7
:101570000B4E24EA03480FF2042606EB1327490812
:101580003E785FEA320203FB0667C7F5000707FBF8
:1015900006F64FEA54374FEAD64606F1020607FB35
:1015A000066CCCF1005C4FEA1C472CEA074C07FBA9
:1015B00006F40CFB06F504EB15464FEA961634BF0D
:1015C00000204FF000404FEAD13706FB07FC4FEAFE
:1015D0001C4C0CFB0BF7D21B03FB0CF761EB070158
:1015E0000CFB0EF7B0EB074072EB17420CFB08F751
:1015F00034BFA2EB0742B2EB074261EB17414FEA5F
:101600000C444FEA910706FB07FC4FEA1C4C0CFB0D
:101610000BF7B0EBC74072EB573203FB0CF734BF4C
:10162000A2EBC742B2EBC74261EB57310CFB0EF79E
:10163000B0EBC70072EB57720CFB08F734BFA2EB9C
:10164000C702B2EBC70261EB5771039F4FEA81619A
:1016500041EA921104EBCC044FEAD1374FEA82629F
:1016600006FB07FC42EA90124FEA80604FEA1C4CEE
:101670000CFB0BF7D21B03FB0CF761EB07010CFB18
:101680000EF7B0EB074072EB17420CFB08F734BFC4
:10169000A2EB0742B2EB074261EB17414FEA8C55D0
:1016A0004FEA910704EB9C2406FB07FC4FEA1C4C15
:1016B0000CFB0BF7B0EBC74072EB573203FB0CF798
:1016C00034BFA2EBC742B2EBC74261EB57310CFB10
:1016D0000EF7B0EBC70072EB57720CFB08F734BF84
:1016E000A2EBC702B2EBC70261EB577115EB4C25B9
:1016F0004FEA816141EA92114FEA82624FEAD137A3
:1017000042EA901206FB07FC44F100044FEA8060B5
:101710004FEA1C4C0CFB0BF7D21B03FB0CF761EBE5
:1017200007010CFB0EF7B0EB074072EB17420CFB06
:1017300008F734BFA2EB0742B2EB074261EB174157
:1017400015EB1C154FEA813141EA92414FEA823292
:1017500042EA90424FEA80304FEA0C7644F10004AE
:1017600048EA03434EEA0B484FF0000EB2EB080C78
:1017700071EB030724BF624639464EEB0E0E4FF065
:10178000000B0018524149414BEB0B0BB2EB080C1C
:1017900071EB03077BF1000B24BF624639464EEB29
:1017A0000E0E4FF0000B0018524149414BEB0B0B52
:1017B000B2EB080C71EB03077BF1000B24BF624610
:1017C00039464EEB0E0E51EA020718BF46F00106ED
:1017D00016EB0E7655F1000254F1000103D5BDE879
:1017E0008901BDE80088BDE88901BDE80048B61957
:1017F000524141EB0101A3F10103704780807F7EDC
:101800007D7C7B7A79787776767574737271717076
:101810006F6E6E6D6C6C6B6A6A6968686766666528
:101820006464636362616160605F5F5E5E5D5D5CB6
:101830005C5B5B5A5A595958585757565655555527
:101840005454535352525251515050504F4F4F4E87
:101850004E4D4D4D4C4C4C4B4B4B4A4A4A494949D5
:101860004848484747474746464645454544444417
:10187000444343434342424242414141002B9C4640
:1018800030D477002BD01CB54FEA370703B44FF0A4
:1018900010004FF01001BAF1000F06D0BCF1000F9C
:1018A000DCBF40F0080040F008014FF000000FBC22
:1018B000BDE810400BF1010BBBF1010F08BF5FEA5F
:1018C000170722BF12F1010211F101014FF000418F
:1018D00043F1000300F0004043EA00007047F9D3F1
:1018E0005708D0E746EA064613F1400F4FEA16467E
:1018F0001FDD13F1200FDFBF16430A4600212033FE
:101900005B42BED0C3F1200746EA064602FA07F75B
:101910004FEA164646EA0706C3F1200722FA03F209
:1019200001FA07F721FA03F14FF0000342EA070238
:10193000A7E746EA020646EA06464FEA164646EAA0
:101940000106BCBF46EA0646360C4FF000034FF0D6
:1019500000024FF0000194E72DE9804C9A4693462F
:1019600070B491E8380007C831EA400C48BF34EA47
:10197000430C03D5FFF7E6FDFFF780FFF0BCBDE8A1
:10198000008C2DE9804C9A46934670B491E838005B
:1019900007C810F0804F08BF13F0804F03D100F04C
:1019A00005F8FFF76BFFF0BCBDE8008C20F07F4727
:1019B00080EA030023F07F4C07EB0C03A3F57C5374
:1019C00000F00040A3F1FE0392F0000F00F0B3809E
:1019D00095F0000F00F077802DE901494FEA1140A2
:1019E0004FEA144621EA004800FB06FC24EA0647B9
:1019F00008FB06F607FB08F800FB07F718EB06489C
:101A00004CEB164C4FEA124B18EB07484FEA1546C1
:101A10004CEB174022EA0B4E0BFB06FC25EA06476F
:101A20000EFB06F607FB0EFE0BFB07F71EEB064E42
:101A30004CEB164C4FF000061EEB074E4CEB174BD1
:101A400018EB0B0840F1000018EB0E0B58EB0008E8
:101A500040F100008F1A4FF000013CBFC943661BE4
:101A600014BFB5EB040C00213CBFC943F61B4FEA81
:101A700017444EEA8E0E27EA04454FEA1C4704FB42
:101A800007622CEA074C05FB07F70CFB05F604FB85
:101A90000CFC16EB074642EB174216EB0C4642EBEA
:101AA0001C421BEB060658EB0202414146EA9E0629
:101AB00001D5BDE80189B619524141EB0101A3F1FD
:101AC0000103BDE801894FEA14454FEA114724EAB2
:101AD000054621EA074C05FB07F406FB07F70CFB5C
:101AE00006F105FB0CFC11EB074144EB17444FEAF0
:101AF000124711EB0C4144EB1C4422EA074C05FB56
:101B000007F206FB07F70CFB06F605FB0CFC16EBD1
:101B1000074642EB174216EB0C4642EB1C456A188F
:101B200054F1000148BF7047B619524141EB010121
:101B3000A3F10103704795F0000F37D04FEA11422F
:101B40004FEA144721EA024624EA074C02FB07F158
:101B500006FB07F70CFB06F402FB0CFC14EB074436
:101B600041EB17414FEA154714EB0C4441EB1C4184
:101B700025EA074C02FB07F506FB07F70CFB06F608
:101B800002FB0CFC16EB074645EB174516EB0C4623
:101B900045EB1C42121951F1000148BF7047B619BC
:101BA000524141EB0101A3F1010370474FEA144593
:101BB0004FEA114724EA054621EA074C05FB07F1E5
:101BC00006FB07F70CFB06F24FF0000605FB0CFCCA
:101BD00012EB074241EB174112EB0C4251EB1C4157
:101BE00048BF7047921841EB0101A3F10103704710
:101BF0001FB50020009001900290039010200090EB
:101C000001200190002002900320039069460448BF
:101C100000F0B2F900221021014800F045FB1FBD81
:101C20000008014010B50821014800F035FB10BD47
:101C30000008014000B585B000200190029003909B
:101C4000049000BF0C48806940F004000A49886194
:101C50000846806900F00400009000BF00BF082023
:101C60000190002002900220039001A9034800F097
:101C700083F905B000BD00000010024000080140DB
:101C800010B5FFF7CFFF104908600846006801282B
:101C90000CD10EA20021032002F07CFC00222021A6
:101CA0000C4800F001FB03F0B9FB0BE00AA2002195
:101CB000032002F06FFC01222021064800F0F4FA14
:101CC00003F0ACFB10BD00000400002070656F70D5
:101CD0006C650000000801406E6F6E656E65000067
:101CE00000BFFEE710B50024282003F02DF92021C5
:101CF0000B4800F0D1FA50B9502003F025F920210B
:101D0000074800F0C9FA08B1012400E0FF2400BF31
:101D10002021034800F0C0FA0028F9D1204610BD68
:101D2000000C014070B5002423E000BF20211348BF
:101D300000F0B2FA0028F9D0282003F005F920219C
:101D40000E4800F0A9FA28B9C4F107010120884023
:101D5000854305E0C4F10701012088402843C5B24E
:101D600000BF2021054800F097FA0028F9D1601C37
:101D7000C4B2082CD9DB284670BD0000000C01401D
:101D800010B500F047F8FFF7ADFF18490870FFF7EE
:101D9000C9FF17490870FFF7C5FF16490870FFF71C
:101DA000C1FF15490870FFF7BDFF14490870FFF720
:101DB000B9FF1349088010480078124908800C4880
:101DC0000078114908800F48008803F0F3FD0446AD
:101DD00003F0BCFD0D4908600B48008803F0EAFDE4
:101DE000044603F0B3FD0A49086010BD340000202A
:101DF00020000020210000202200002023000020DD
:101E00002400002028000020260000202C000020B4
:101E10003000002010B52021084802F0D3FC002239
:101E20002021064800F040FA44F2506003F08CF89C
:101E30002021024802F0B5FC10BD0000000C01405A
:101E4000704772B600BFFEE70146002291F82100FC
:101E5000022808D00420886300BF002081F82000F9
:101E600000BF012070470868006820F00E000B6872
:101E700018600868006820F001000B68186091F88D
:101E8000403001209840CB6B5860012081F8210040
:101E900000BF002081F8200000BF1046E2E70000EC
:101EA00070B50446002594F82100022803D00420D0
:101EB000A063012548E02068006820F00E0021683A
:101EC00008602068006820F00100216808601F4950
:101ED0002068884201D1012026E01C491431206885
:101EE000884201D110201FE018492831206888421B
:101EF00001D1801518E015493C312068884201D194
:101F0000801411E0114950312068884202D14FF409
:101F1000803009E00D4964312068884202D14FF4D5
:101F2000801001E04FF080700849083948600120B6
:101F300084F8210000BF002084F8200000BF606BFF
:101F400010B12046616B8847284670BD08000240EA
:101F500070B5044600F0AEF906462546681C10B17F
:101F600004480078054400BF00F0A4F9801BA84293
:101F7000FAD370BD180000202DE9F847034600226F
:101F800094466EE14FF0010808FA02F4D1F800809F
:101F900008EA0400A0427DD1DFF8DCA2D1F8048079
:101FA000A8EB0A09D0453AD014DCB8F1030F50D0A1
:101FB00009DCB8F1000F31D0B8F1010F1CD0B8F135
:101FC000020F49D120E0B8F1110F18D0B8F1120F6B
:101FD00042D11EE0B9F5881F25D006DCB9F5803F57
:101FE00020D0B9F5801F37D11AE0B9F5001F18D0FD
:101FF000B9F5041F30D117E0D1F80CC02DE0D1F8AD
:102000000C8008F1040C28E0D1F80C8008F1080CD1
:1020100023E0D1F80C8008F10C0C1EE000BF00BFDB
:1020200000BF00BF00BF00BFD1F80880B8F1000FAB
:1020300002D14FF0040C0BE0D1F80880B8F1010F89
:1020400003D14FF0080C1C6102E04FF0080C5C61FA
:1020500003E04FF0000C00E000BF00BFFF2801D8F4
:10206000984601E003F104084646FF2802D84FEAEB
:10207000820803E0A2F108084FEA88084746D6F82C
:1020800000804FF00F0909FA07F928EA09080CFA4D
:1020900007F900E088E048EA0908C6F80080D1F8AE
:1020A000048008F08058B8F1805F7DD100BFDFF870
:1020B000CC81D8F8188048F00108DFF8C091C9F841
:1020C0001880C846D8F8188008F00108CDF80080BC
:1020D00000BF00BF4FEAB9384FEA920958F82950BB
:1020E0004FEA82784FEA18794FF00F0808FA09F89A
:1020F00025EA0805DFF88881434502D14FF0000842
:1021000016E0DFF88081434502D14FF001080FE06F
:10211000DFF87481434502D14FF0020808E0DFF890
:102120006C81434502D14FF0030801E04FF00408F1
:102130004FEA82794FEA197908FA09F848EA050561
:10214000DFF84C814FEA920948F82950D1F8048011
:1021500008F48018B8F5801F0AD1DFF83881D8F864
:10216000008048EA0008DFF82C91C9F8008009E0F7
:10217000DFF82081D8F8008028EA0008DFF8149101
:10218000C9F80080D1F8048008F40018B8F5001FE1
:1021900010D1DFF8008108F10408D8F8008048EA7F
:1021A0000008DFF8F09000E05AE009F10409C9F8EE
:1021B00000800DE0DFF8DC8008F10408D8F800802A
:1021C00028EA0008DFF8CC9009F10409C9F800807A
:1021D000D1F8048008F40038B8F5003F0ED1DFF8DC
:1021E000B480A8F10408D8F8008048EA0008DFF8B5
:1021F000A490A9F10409C9F800800DE0DFF89480EB
:10220000A8F10408D8F8008028EA0008DFF88490D4
:10221000A9F10409C9F80080D1F8048008F48038D5
:10222000B8F5803F0ED1DFF86C80A8F10808D8F827
:10223000008048EA0008DFF85C90A9F10809C9F8B5
:1022400000800DE0DFF84C80A8F10808D8F8008085
:1022500028EA0008DFF83C90A9F10809C9F80080D5
:10226000521CD1F8008028FA02F8B8F1000F7FF470
:1022700089AEBDE8F8870000000011100010024090
:1022800000080140000C0140001001400014014012
:102290000800014008040140024693680B400BB15E
:1022A000012000E0002070470AB1016101E00B0449
:1022B000036170470148006870470000100000206B
:1022C00070B504460CB9012070BD94F83D0028B9E2
:1022D000002084F83C00204600F092F9242084F885
:1022E0003D002068006820F0010021680860206837
:1022F000006840F40040216808602068006820F40D
:1023000000402168086000F053FB05465C496068A6
:10231000884206D85B48854201D2012007E00020B0
:1023200005E05948854201D2012000E00020012843
:1023300000D1C9E75548B5FBF0F62068406820F0A9
:102340003F003043216848604D496068884201D8A9
:10235000701C07E04FF4967070434FF47A71B0FB35
:10236000F1F0401C2168096A21F03F01084321680F
:10237000086243496068884214D8681E6168490051
:10238000B0FBF1F0401CC0F30B00042801D2042084
:102390003DE0681E61684900B0FBF1F0401CC0F3ED
:1023A0000B0034E0A06838B9681E616801EB410198
:1023B000B0FBF1F0401C0AE0681E616801EBC1024D
:1023C00002EB0111B0FBF1F0401C40F48040C0F37F
:1023D0000B0008B901201AE0A06848B9681E6168BE
:1023E00001EB4101B0FBF1F0401CC0F30B000CE02D
:1023F000681E616801EBC10202EB0111B0FBF1F054
:10240000401CC0F30B0040F4804040F400402168C1
:10241000C9694CF6FF72914308432168C861D4E949
:10242000070108432168096821F0C00108432168B9
:102430000860D4E9031008432168896848F2FF3234
:102440009143084321688860D4E905010843216865
:10245000C96821F0FF0108432168C860206800684E
:1024600040F001002168086000202064202084F8EA
:102470003D000020206384F83E0000BF24E70000F8
:10248000A086010080841E0000093D0040420F002C
:102490002DE9F8430446894616461F46DDF820809C
:1024A000FFF708FF054694F83D0020287ED1192348
:1024B000012251492046009501F01FFC10B1022075
:1024C000BDE8F88300BF94F83C00012801D1022048
:1024D000F6E7012084F83C0000BF2068006800F0A7
:1024E000010028B92068006840F0010021680860F8
:1024F0002068006820F4006021680860212084F8CA
:102500003D00102084F83E0000202064666267854C
:10251000608D20853948E0622B4642464946204678
:1025200001F058FB08B10120CAE700BF002000906D
:1025300020684069009020688069009000BF00BF5B
:1025400044E02A464146204601F0B3FC50B1206CDD
:10255000042805D12068006840F4007021680860F4
:102560000120ADE7606A007821680861606A401C5C
:102570006062608D401E6085208D401E2085206831
:102580004069C0F3800070B1208D60B1606A00784E
:1025900021680861606A401C6062608D401E608531
:1025A000208D401E20852A46414600E022E020463C
:1025B00001F070FB50B1206C042805D12068006840
:1025C00040F4007021680860012079E7208D002820
:1025D000B7D12068006840F40070216808602020AE
:1025E00084F83D00002084F83E0000BF84F83C00E1
:1025F00000BF65E7022063E7020010000000FFFF54
:1026000010B586B004460020029003900490059017
:1026100015492068884225D100BF1448806940F0E0
:102620000800124988610846806900F0080001909E
:1026300000BF00BFC020029012200390032005902D
:1026400002A90B48FFF798FC00BF0848C06940F496
:1026500000100649C8610846C06900F400100190E6
:1026600000BF00BF06B010BD005400400010024083
:10267000000C0140034800680349097808440149F7
:1026800008607047100000201800002010B50848AE
:10269000006840F0100006490860032000F0A8F828
:1026A0000F2000F007F800F02BF8002010BD00000C
:1026B0000020024070B504460E4800784FF47A714D
:1026C000B1FBF0F00C490968B1FBF0F5284600F0C9
:1026D000F9FB08B1012070BD102C07D20022214661
:1026E000501E00F047F80548046001E00120F2E7C1
:1026F0000020F0E7180000201C000020140000203B
:1027000008B500BF1148806940F001000F49886199
:102710000846806900F00100009000BF00BF00BFC4
:102720000846C06940F08050C8610846C06900F0A2
:102730008050009000BF00BF00BF0549486820F0EE
:10274000E06040F00070486000BF08BD001002402B
:102750000000014001460846002809DB00F01F0385
:1027600001229A4043099B0003F1E023C3F80021B2
:1027700000BF70472DE9F05F80460D4616460027E2
:1027800002F0BEFB074639462A46334601F00700F1
:10279000C0F1070ABAF1040F02D94FF0040A01E0B0
:1027A000C0F1070AD14600F1040ABAF1070F02D2BC
:1027B0004FF0000A01E0A0F1030AD4464FF0010AED
:1027C0000AFA09FAAAF1010A0AEA020A0AFA0CFA52
:1027D0004FF0010B0BFA0CFBABF1010B0BEA030BF7
:1027E0004AEA0B042146404602F092FBBDE8F09F06
:1027F00000BF00F00702064B19684FF6FF031940AF
:10280000044B0B4343EA0221014B196000BF7047A0
:102810000CED00E00000FA0570B504460D460CB959
:10282000012070BD5A48006800F00700A8420ED28F
:102830005748006820F007002843554908600846BB
:10284000006800F00700A84201D00120E9E72078E5
:1028500000F0020002281DD1207800F004000428B6
:1028600005D14C48406840F4E0604A49486020780F
:1028700000F00800082805D14648406840F4605040
:10288000444948604348406820F0F000A16808438C
:1028900040494860207800F0010078B36068012862
:1028A00006D13C48006800F4003090B90120B8E738
:1028B0006068022806D13748006800F0007040B90F
:1028C0000120AEE73348006800F0020008B901209B
:1028D000A7E73048406820F00300616808432D49AD
:1028E0004860FFF7E7FC064609E0FFF7E3FC801BC2
:1028F00041F28831884202D9032092E707E0254857
:10290000406800F00C006168B0EB810FEDD1204809
:10291000006800F00700A8420ED91D48006820F0AA
:10292000070028431A4908600846006800F00700BD
:10293000A84201D0012074E7207800F004000428A8
:1029400007D11448406820F4E060E1680843114969
:102950004860207800F00800082808D10D48406839
:1029600020F46050216940EAC1000A49486000F043
:102970003FF808494968C1F30311074A515CC84050
:102980000649086006480068FFF794FE002048E703
:102990000020024000100240445D00081C0000209E
:1029A0001400002001480068704700001C0000204F
:1029B00000B5FFF7F7FF04494968C1F30221034A54
:1029C000515CC84000BD000000100240545D00088A
:1029D00000B5FFF7E7FF04494968C1F3C221034A84
:1029E000515CC84000BD000000100240545D00086A
:1029F00070B500210022002400230020134D6968D7
:102A000001F00C05F5B1042D02D0082D19D101E01B
:102A10000F4819E00F4DC1F38346AB5D01F48035DB
:102A200055B10A4D6D68C5F340450B4E725D084DBA
:102A30005D43B5FBF2F402E0084D03FB05F42046CC
:102A400002E000BF024800BF00BF70BD001002409E
:102A500000127A00325D0008425D000800093D0066
:102A6000F8B504460CB90120F8BD207800F001004B
:102A7000002878D0F848406800F00C0004280CD0FA
:102A8000F548406800F00C00082811D1F248406871
:102A900000F48030B0F5803F0AD1EF48006800F4C0
:102AA000003000285FD0606800285CD10120DBE79F
:102AB00000BF6068B0F5803F06D1E748006840F489
:102AC0008030E549086028E0606858B9E24800684D
:102AD00020F48030E04908600846006820F4802037
:102AE00008601AE06068B0F5A02F0BD1DA480068E2
:102AF00040F48020D84908600846006840F48030DF
:102B000008600AE0D448006820F48030D2490860A8
:102B10000846006820F48020086000BF606888B123
:102B2000FFF7C8FB054606E0FFF7C4FB401B64281F
:102B300001D9032098E7C848006800F40030002855
:102B4000F2D010E0FFF7B6FB054606E0FFF7B2FB58
:102B5000401B642801D9032086E7BF48006800F4C1
:102B600000300028F2D1207800F00200022857D16E
:102B7000B948406800F00C0050B1B748406800F018
:102B80000C00082818D1B448406800F4803098B987
:102B9000B148006800F0020020B12069012801D08E
:102BA000012061E7AC48006820F0F800616940EA64
:102BB000C100A949086033E02069E8B10120A749B4
:102BC0000860FFF777FB054606E0FFF773FB401B45
:102BD000022801D9032047E79F48006800F002005F
:102BE0000028F2D09C48006820F0F800616940EAB3
:102BF000C1009949086013E0002098490860FFF778
:102C000059FB054606E0FFF755FB401B022801D99A
:102C1000032029E79048006800F002000028F2D164
:102C2000207800F0080008282DD1A069B8B1012053
:102C30008B490860FFF73EFB054606E0FFF73AFBCD
:102C4000401B022801D903200EE78348406A00F0A8
:102C500002000028F2D0012001F08EFD13E00020D8
:102C60007F490860FFF726FB054606E0FFF722FBD9
:102C7000401B022801D90320F6E67748406A00F09D
:102C800002000028F2D1207800F00400042873D15B
:102C900000277148C06900F0805070B900BF6E48CD
:102CA000C06940F080506C49C8610846C06900F0B6
:102CB0008050009000BF00BF01276A48006800F400
:102CC0008070B0B96748006840F48070654908605A
:102CD000FFF7F0FA054606E0FFF7ECFA401B642820
:102CE00001D90320C0E65F48006800F48070002826
:102CF000F2D000BFE068012806D15748006A40F0D2
:102D000001005549086227E0E06858B95248006A56
:102D100020F00100504908620846006A20F00400D3
:102D2000086219E0E06805280BD14B48006A40F0C2
:102D30000400494908620846006A40F00100086240
:102D40000AE04548006A20F001004349086208464D
:102D5000006A20F00400086200BFE068A0B1FFF73D
:102D6000A9FA054609E0FFF7A5FA401B41F28831B0
:102D7000884202D9032077E622E03748006A00F053
:102D800002000028EFD012E0FFF794FA054608E0B1
:102D9000FFF790FA401B41F28831884201D90320A5
:102DA00062E62D48006A00F002000028F0D1012FF1
:102DB00005D12948C06920F080502749C86100BF6B
:102DC000E069C8B32448406800F00C00082860D0CF
:102DD000E069022848D1002020490866FFF76AFA16
:102DE000054606E0FFF766FA401B022801D90320DA
:102DF0003AE61948006800F000700028F2D1206A15
:102E0000B0F5803F07D11448406820F40030A16835
:102E1000084311494860D4E9080108430E4949684C
:102E200021F4741108430C49486001200B490866DD
:102E3000FFF740FA054607E03DE0FFF73BFA401B8D
:102E4000022801D903200FE60348006800F0007053
:102E50000028F2D02FE000000010024000004242A3
:102E60008004424200700040002014490866FFF7C9
:102E700021FA054606E0FFF71DFA401B022801D99A
:102E80000320F1E50E48006800F000700028F2D140
:102E900011E0E069012800D1E6E50948466806F43A
:102EA0008031206A814204D106F47011606A814247
:102EB00001D00120D8E50020D6E500000000424204
:102EC0000010024070B504462546681EB0F1807FB0
:102ED00001D301200FE0681E4FF0E02148610F216F
:102EE0004FF0FF3002F014F800204FF0E02188612D
:102EF00007200861002070BD7047704730B502465A
:102F00000B4600BF92F83C00012801D1022030BDE1
:102F1000012082F83C0000BF022082F83D001068CA
:102F200044681068816824F07004186804431068CD
:102F30004460104D1068A8420BD01068B0F1804F6B
:102F400007D00D4D1068A84203D00C4D1068A84260
:102F500005D121F08001586801431068816001208B
:102F600082F83D0000BF002082F83C0000BF00BF97
:102F7000CDE70000002C01400004004000080040A4
:102F800010B504460CB9012010BD94F83D0028B9D5
:102F9000002084F83C00204600F026F8022084F847
:102FA0003D00211D206801F05FFC012084F84600EF
:102FB00000BF84F83E0001213F200155402001550B
:102FC0004120015500BF00BF012084F8420043208A
:102FD0000155442001554520015500BF012084F8CA
:102FE0003D000020D0E7000038B50446284920689D
:102FF00088420DD100BF2748806940F40060254910
:1030000088610846806900F40060009000BF3DE0E0
:103010002068B0F1804F0DD100BF1E48C06940F05C
:1030200001001C49C8610846C06900F00100009019
:1030300000BF2BE01849206888420DD100BF154819
:10304000C06940F002001349C8610846C06900F039
:103050000200009000BF19E010492068884215D195
:1030600000BF0C48C06940F004000A49C861084626
:10307000C06900F00400009000BF00BF00221146AC
:103080001E20FFF777FB1E20FFF764FB38BD000012
:10309000002C0140001002400004004000080040E5
:1030A000014691F83D00012801D00120704702201F
:1030B00081F83D00124B086898420BD00868B0F1C7
:1030C000804F07D00F4B0868984203D00E4B08681A
:1030D00098420CD10868806800F00702062A0CD0DC
:1030E0000868006840F001000B68186005E0086897
:1030F000006840F001000B6818600020D6E700006F
:10310000002C014000040040000800402DE9F0417F
:1031100004460D46002700BF94F83C00012802D168
:103120000220BDE8F081012084F83C0000BF0220AD
:1031300084F83D002068866826F0770626F47F46EE
:10314000206886602868502833D00CDC202850D0B6
:1031500004DC00284BD0102851D149E0302849D058
:1031600040284CD139E060282DD0702807D0B0F528
:10317000805F03D0B0F5005F41D10DE041E0D5E9BB
:1031800002136A68206801F0C2FB2068866846F076
:1031900077062068866034E0D5E902136A68206803
:1031A00001F0B5FB2068806840F4804021688860A9
:1031B00027E0EA686968206801F07AFC50212068FD
:1031C00001F0B0FB1DE0EA686968206801F083FC4B
:1031D0006021206801F0A6FB13E0EA6869682068B6
:1031E00001F066FC4021206801F09CFB09E000BF73
:1031F00000BF00BF2968206801F094FB01E00127AF
:1032000000BF00BF012084F83D0000BF002084F80B
:103210003C0000BF384684E7704770B5044620681C
:10322000C5682068066906F00200022819D105F079
:103230000200022815D1401F216808610120207773
:103240002068806900F0030018B12046FFF7E4FF12
:1032500005E0204600F0C4F8204600F078F9002090
:10326000207706F00400042819D105F00400042892
:1032700015D1C04321680861022020772068806949
:1032800000F4407018B12046FFF7C6FF05E0204665
:1032900000F0A6F8204600F05AF90020207706F04A
:1032A0000800082819D105F00800082815D1C043E6
:1032B00021680861042020772068C06900F00300BD
:1032C00018B12046FFF7A8FF05E0204600F088F877
:1032D000204600F03CF90020207706F0100010286E
:1032E00019D105F01000102815D1C04321680861DC
:1032F000082020772068C06900F4407018B120468B
:10330000FFF78AFF05E0204600F06AF8204600F04B
:103310001EF90020207706F0010048B105F00100F9
:1033200030B16FF0010021680861204600F07AF9A1
:1033300006F08000802809D105F08000802805D1A2
:10334000C043216808612046FFF7D6FD06F0400023
:10335000402809D105F04000402805D1C04321682C
:103360000861204600F06EF906F02000202809D1FF
:1033700005F02000202805D1C043216808612046BF
:10338000FFF7BBFD70BD000010B586B004460020FD
:1033900002900390049005900E492068884216D14F
:1033A00000BF0D48806940F004000B498861084661
:1033B000806900F00400019000BF00BF402002902F
:1033C00002200390059002A90448FEF7D5FD06B03F
:1033D00010BD000000040040001002400008014041
:1033E00070472DE9F04104460D461646002700BF00
:1033F00094F83C00012802D10220BDE8F0810120B0
:1034000084F83C0000BF36B1042E1BD0082E31D00A
:103410000C2E5ED145E02946206801F08DFA206827
:10342000806940F00800216888612068806920F088
:10343000040021688861206880692969084321683F
:10344000886148E02946206801F0A6FA2068806972
:1034500040F40060216888612068806920F4806001
:103460002168886120688069296940EA0120216813
:10347000886130E02946206801F0C2FA2068C069FE
:1034800040F008002168C8612068C06920F004008D
:103490002168C8612068C069296908432168C8613A
:1034A00019E02946206801F0DFFA2068C06940F47D
:1034B00000602168C8612068C06920F480602168CC
:1034C000C8612068C069296940EA01202168C86193
:1034D00001E0012700BF00BF00BF002084F83C00CE
:1034E00000BF384689E710B504460CB9012010BD6D
:1034F00094F83D0028B9002084F83C00204600F0F4
:1035000025F8022084F83D00211D206801F0ACF967
:10351000012084F8460000BF84F83E0001213F20CE
:103520000155402001554120015500BF00BF012039
:1035300084F842004320015544200155452001559F
:1035400000BF012084F83D000020D0E7704770479D
:1035500070B504460D4615B994F83E000BE0042DF5
:1035600002D13F20005D06E0082D02D14020005D21
:1035700001E04120005D012801D0012070BD1DB98E
:10358000022084F83E000EE0042D03D102213F20EA
:10359000015508E0082D03D102214020015502E029
:1035A00002214120015501222946206801F09EF99F
:1035B00019492068884201D1012000E0002028B18B
:1035C0002068406C40F4004021684864124920683B
:1035D00088420BD02068B0F1804F07D00F49206897
:1035E000884203D00E49206888420CD12068806848
:1035F00000F00706062E0CD02068006840F001009D
:103600002168086005E02068006840F0010021683A
:1036100008600020B2E70000002C014000040040D8
:1036200000080040054A01681268914204D104492B
:103630000968491C024A116070470000C40100205B
:103640009400002070477047704700002DE9F84F44
:103650000446206805682068C668206847694FF0FE
:103660000009CA4605F00F09B9F1000F0AD105F0AB
:10367000200038B106F0200020B1204601F08FFA7A
:10368000BDE8F88FB9F1000F7BD007F0010018B941
:1036900006F49070002874D005F0010030B106F4F3
:1036A000807018B1606C40F00100606405F00400A7
:1036B00030B107F0010018B1606C40F002006064A6
:1036C00005F0020030B107F0010018B1606C40F065
:1036D0000400606405F0080048B106F0200010B94D
:1036E00007F0010018B1606C40F008006064606C85
:1036F000002845D005F0200028B106F0200010B1C8
:10370000204601F04CFA20684069C0F3801A606CD2
:1037100000F0080010B9BAF1000F2CD0204601F0DB
:10372000F8F92068406900F0400000B300BF00BF16
:103730002168143151E8001F21F040002168143144
:1037400041E80002002AF3D100BFE06B50B1774896
:10375000E16B4863E06BFEF7A3FB88B1E06B416B64
:1037600088470DE02046FFF76FFF09E009E020469B
:10377000FFF76AFF04E02046FFF766FF0020606461
:103780007EE7206B012877D105F01000002873D068
:1037900006F010000028FAD000BF0020009020683A
:1037A0000068009020684068009000BF00BF20685B
:1037B000406900F0400000285FD0E06B006840687E
:1037C0001FFA80F8B8F1000F55D0A08D404552DDAA
:1037D000A4F82E80E06B8069202843D000BF00BF92
:1037E00021680C3151E8001F21F4807021680C31F0
:1037F00041E80002002AF3D100BF00BF00BF2168EA
:10380000143151E8001F21F001002168143141E812
:103810000002002AF3D100BF00BF00BF21681431AD
:1038200051E8001F21F040002168143141E80002F6
:10383000002AF3D100BF202084F84200002020633A
:1038400000BF00BF21680C3151E8001F21F01000BB
:1038500021680C3141E80002002AF3D100BFE06B7F
:10386000FEF7F2FA02206063A08DE28D801A81B229
:103870002046FFF7E8FE03E742E0A08DE18D401A05
:103880001FFA80F8E08DD0B3B8F1000F37D000BF39
:1038900000BF21680C3151E8001F21F490702168AD
:1038A0000C3141E80002002AF3D100BF00BF00BF85
:1038B0002168143151E8001F21F001002168143102
:1038C00041E80002002AF3D100BF202084F8420022
:1038D0000020206300BF00BF21680C3151E8001FA9
:1038E00021F0100021680C3141E80002002AF3D1D8
:1038F00000BF0220606341462046FFF7A4FEBFE6FA
:1039000005F0800030B106F0800018B1204601F0CB
:1039100063FAB5E605F0400030B106F0400018B19A
:10392000204601F02CF9ABE600BFA9E6FF4A0008EB
:1039300010B504460CB9012010BDA06900B100E02B
:1039400000BF94F8410028B9002084F840002046C8
:1039500000F02AF8242084F841002068C06820F490
:1039600000502168C860204601F098F9206800697D
:1039700020F49040216808612068406920F02A0006
:10398000216848612068C06840F400502168C86020
:1039900000206064202084F8410084F84200002068
:1039A000606300BFC8E7000010B586B00446002081
:1039B00002900390049005901E492068884236D1F9
:1039C00000BF1D48806940F480401B49886108465B
:1039D000806900F48040019000BF00BF00BF08462E
:1039E000806940F0040088610846806900F00400A6
:1039F000019000BF00BF48150290022003900320F1
:103A0000059002A90D48FEF7B7FA4FF480600290C6
:103A100000200390049002A90848FEF7ADFA0022A6
:103A200011462520FEF7A6FE2520FEF793FE06B0E0
:103A300010BD0000003801400010024000080140A5
:103A400070B504460D46164694F8420020280BD166
:103A500005B10EB9012070BD002020633246294611
:103A6000204601F099F9F6E70220F4E710B5044684
:103A700002200F4908600F492068884217D10E487C
:103A800001780E4802880088401C0C4B18800C48B6
:103A90008154012208490B48FFF7D2FF01200A494F
:103AA000088000200949088001200149086010BDF4
:103AB00068000020003801407000002074000020E1
:103AC000D40600200C0200207200002076000020A6
:103AD0002DE9F84F04460E46174699464FF0000A66
:103AE00094F84100202850D106B117B90120BDE853
:103AF000F88F00206064212084F84100FEF7DAFB93
:103B00008246A784E784A068B0F5805F04D120696D
:103B100010B90025B04602E035464FF000081EE01F
:103B20005346002280212046CDF8009001F084F910
:103B300020B1202084F841000320D8E745B9B8F827
:103B40000000C0F308002168486008F1020803E0A3
:103B50002878216848606D1CE08C401EE084E08C71
:103B60000028DDD15346002240212046CDF80090A8
:103B700001F062F920B1202084F841000320B6E76B
:103B8000202084F841000020B1E70220AFE7704711
:103B900000BFFEE7014608684069C0F38020B0B16D
:103BA0006FF480600A68506100200863202081F86B
:103BB0003D00002081F83E00086C40F004000864DD
:103BC00000BF002081F83C0000BF012070470020AA
:103BD000FCE700002DE9F84304460D4617469846D9
:103BE000E66A082E04D0012E02D016F5803F06D1D9
:103BF0002068006840F480702168086008E0206B4D
:103C0000122805D12068006840F48070216808609F
:103C10003B4600224FF001112046CDF8008000F015
:103C20006CF860B12068006800F48070B0F5807FA7
:103C300002D14FF4007020640320BDE8F8832069AE
:103C4000B0F5804F04D105F0FE002168086112E054
:103C500005F44070F02141EAE01021680861434614
:103C60003A460B49204600F0A7F808B10120E4E7E6
:103C7000E8B22168086143463A460549891F204653
:103C800000F09AF808B10120D7E70020D5E700003E
:103C90000800010070B504460D46164625E0204692
:103CA000FFF778FF08B1012070BD681CE8B1FEF78E
:103CB00001FB801BA84200D8BDB920684069C0F351
:103CC000800090B900202063202084F83D0000206F
:103CD00084F83E00206C40F02000206400BF0020EB
:103CE00084F83C0000BF0120DEE720684069C0F393
:103CF00080000028D3D00020D6E72DE9F04104460B
:103D00000D4617461E46DDF8188038E0701CA8B333
:103D1000FEF7D0FAA0EB0800B04200D876BBC5F39E
:103D2000074001280AD120684069A9B20840A9B219
:103D3000884201D101200BE0002009E02068806961
:103D4000A9B20840A9B2884201D1012000E00020B8
:103D5000B84214D100202063202084F83D000020C8
:103D600084F83E00206C40F02000206400BF00205A
:103D700084F83C0000BF0120BDE8F081FFE7C5F3F7
:103D8000074001280AD120684069A9B20840A9B2B9
:103D9000884201D101200BE0002009E02068806901
:103DA000A9B20840A9B2884201D1012000E0002058
:103DB000B842ABD00020DFE72DE9F04104460D46C4
:103DC00016461F4658E020684069C0F38020E8B1DD
:103DD0002068006840F40070216808606FF480601B
:103DE0002168486100202063202084F83D000020E5
:103DF00084F83E00206C40F00400206400BF0020E6
:103E000084F83C0000BF0120BDE8F081701C90B335
:103E1000FEF750FAC01BB04200D866BBC5F307409E
:103E200001280AD120684069A9B20840A9B2884295
:103E300001D101200BE0002009E020688069A9B2CF
:103E40000840A9B2884201D1012000E0002090B9C9
:103E500000202063202084F83D00002084F83E00EC
:103E6000206C40F02000206400BF002084F83C005B
:103E700000BF0120C8E7FFE7C5F3074001280AD1CA
:103E800020684069A9B20840A9B2884201D1012046
:103E90000BE0002009E020688069A9B20840A9B2BF
:103EA000884201D1012000E0002000288BD00020B2
:103EB000AAE770B504460D46164625E02046FFF7F2
:103EC00069FE08B1012070BD681CE8B1FEF7F2F987
:103ED000801BA84200D8BDB920684069C0F3C0105B
:103EE00090B900202063202084F83D00002084F851
:103EF0003E00206C40F02000206400BF002084F8C9
:103F00003C0000BF0120DEE720684069C0F3C0101C
:103F10000028D3D00020D6E710B54FF480410448E4
:103F2000FEF7BAF908B9012010BD0020FCE7000037
:103F30000010014000B585B0002001900290039070
:103F4000049000BF0C48806940F004000A49886171
:103F50000846806900F00400009000BF00BF4FF4E5
:103F600080400190002002900120039001A90348A5
:103F7000FEF702F805B000BD00100240001001403D
:103F800000B585B00020019002900390049000BF1E
:103F90001148806940F008000F498861084680692F
:103FA00000F00800009000BF00BF002201210B4874
:103FB000FEF77AF901200190029000200390022080
:103FC000049001A90548FDF7D7FF0022012103480D
:103FD000FEF76AF905B000BD00100240000801407C
:103FE00000B5A7B000202390249025902690219022
:103FF00022901C211AA8FCF740FB202112A8FCF7F4
:104000003CFB21480090472001900021029140F2A2
:10401000E731039100210491059106916846FEF76E
:10402000AFFF08B1FDF70DFF4FF48050239023A997
:104030006846FFF76BF808B1FDF703FF6846FFF726
:1040400052FA08B1FDF7FDFE00202190229021A92F
:104050006846FEF753FF08B1FDF7F3FE60201A90A3
:1040600000201B901C901D901E901F9020900022FD
:104070001AA96846FFF7B5F908B1FDF7E2FE6846F0
:10408000FFF782F927B000BD0004004010B54FF4DF
:1040900000410448FEF700F908B9012010BD0020D6
:1040A000FCE70000000C014000B585B00020019045
:1040B00002900390049000BF3C48806940F01000DB
:1040C0003A4988610846806900F01000009000BFFE
:1040D00000BF00BF0846806940F0200088610846A4
:1040E000806900F02000009000BF00BF00BF0846BC
:1040F000806940F0040088610846806900F004008F
:10410000009000BF00BF00BF0846806940F0080073
:1041100088610846806900F00800009000BF00BF79
:10412000002233212248FEF7BFF8002244F220018A
:104130002048FEF7B9F84FF480400190002002902B
:104140000220039001A91C48FDF716FF33200190BF
:1041500001200290002003900220049001A914483D
:10416000FDF70AFF08200190002002900220039032
:1041700001A90F48FDF700FF44F220000190012043
:104180000290002003900220049001A90948FDF745
:10419000F3FE4FF4004001900020029001200390B4
:1041A00001A90448FDF7E8FE05B000BD001002407B
:1041B00000080140000C01400010014010B50B4800
:1041C0000B4908600B484860002109488160C160C4
:1041D0004FF480410161002141618161C16101624F
:1041E000FEF76EF808B1FDF72CFE10BD005400403C
:1041F00098000020A086010000B587B00020039041
:1042000004900590069001900290154815490860A9
:10421000472048600021134881604FF6FF71C1605C
:104220000021016141618161FEF7AAFE08B1FDF73D
:1042300008FE4FF48050039003A90A48FEF766FF7A
:1042400008B1FDF7FEFD00200190029001A905488C
:10425000FEF754FE08B1FDF7F4FD07B000BD000005
:10426000002C0140EC00002000B587B00020039036
:10427000049005900690019002904FF08040144900
:104280000860472048600021114881604FF6FF71A7
:10429000C160002101618161FEF772FE08B1FDF786
:1042A000D0FD4FF48050039003A90948FEF72EFF7C
:1042B00008B1FDF7C6FD00200190029001A9044855
:1042C000FEF71CFE08B1FDF7BCFD07B000BD000005
:1042D0003401002000B58DB0002009900A900B90A9
:1042E0000C90079008901C216846FCF7C6F92048FE
:1042F000204908604720486000211E4881604FF631
:10430000FF71C160002101618161FEF739FE08B1D2
:10431000FDF797FD4FF48050099009A91548FEF765
:10432000F5FE08B1FDF78DFD1248FFF7DCF808B186
:10433000FDF787FD00200790089007A90D48FEF7BC
:10434000DDFD08B1FDF77DFD6020009000200190AB
:1043500002900490002269460648FFF742F808B12F
:10436000FDF76FFD0348FFF70FF80DB000BD00002B
:10437000000400407C01002000B587B000200390BD
:10438000049005900690019002901448144908602A
:104390004720486000211248816040F2E731C16047
:1043A000002101618161FEF7EBFD08B1FDF749FDD8
:1043B0004FF48050039003A90948FEF7A7FE08B107
:1043C000FDF73FFD00200190029001A90448FEF78F
:1043D00095FD08B1FDF735FD07B000BD00080040B0
:1043E000C401002010B50B480B4908604FF4E130C0
:1043F0004860002108488160C16001610C21416171
:1044000000218161C161FFF793FA08B1FDF719FD41
:1044100010BD0000003801400C02002000BFFEE784
:1044200000BFFEE770B5134600220024002805DB1C
:104430007F2803DC002901DB3F2900DD70BD0D462C
:10444000CE1701EB5676C6F3C702CE1701EB5676B0
:10445000F610A1EBC606F4B2012B0BD1134D05EB00
:10446000C005AD5C0126A6403543104E06EBC006E4
:10447000B55418E0022B0BD10C4D05EBC005AD5C1B
:104480000126A6407540094E06EBC006B5540AE069
:10449000064D05EBC005AE5C0125A540AE43034DBE
:1044A00005EBC005AE5400BFC8E700005402002071
:1044B00010B50021AE2000F0EBFE0021202000F01E
:1044C000E7FE0021102000F0E3FE0021B02000F004
:1044D000DFFE0021C82000F0DBFE0021084600F0CE
:1044E000D7FE0021102000F0D3FE0021402000F074
:1044F000CFFE0021812000F0CBFE0021FF2000F044
:10450000C7FE0021A12000F0C3FE0021A62000F07C
:10451000BFFE0021A82000F0BBFE00213F2000F0DC
:10452000B7FE0021A42000F0B3FE0021D32000F04C
:10453000AFFE0021084600F0ABFE0021D52000F0C0
:10454000A7FE0021F02000F0A3FE0021D92000F0FA
:104550009FFE0021222000F09BFE0021DA2000F0C7
:1045600097FE0021122000F093FE0021DB2000F0D6
:104570008FFE0021202000F08BFE00218D2000F016
:1045800087FE0021142000F083FE0021AF2000F000
:104590007FFE10BD0FB470B505460C460026042DF5
:1045A00001DC142C02DD70BC5DF814FB07A80C497B
:1045B0000860084602680B480699FBF75BFE00207E
:1045C00007490860C4F11500C6B2002005498855A6
:1045D0000A462146284600F083F800BFE3E70000C2
:1045E0003C0000205406002070B5002412E0214653
:1045F000002000F015F8002508E0084901EBC5018E
:10460000085D012100F044FE681CC5B2802DF4DB7A
:10461000601CC4B2082CEADB70BD0000540200200C
:1046200070B504460D4605F1B001C8B2002100F096
:104630002FFE102141EA1410002100F029FE04F0A1
:104640000F00002100F024FE70BD00002DE9F74F9F
:1046500080461546019800EB40004006060E08EB28
:1046600048008006040EA346A5F12000C5B200272D
:104670002FE005EB4500194901EB800010F8079089
:104680004FF0000A1FE009F0800028B1012261B25A
:1046900070B2FFF7C7FE04E0002261B270B2FFF70C
:1046A000C1FE4FEA49604FEA1069601CC4B2A4EB36
:1046B0000B000C2803D15C46701CC6B206E00AF160
:1046C000010000F0FF0ABAF1080FDCDB00BF781C24
:1046D000C7B20C2FCDDBBDE8FE8F00005C5D00088B
:1046E000F0B507460C46154600260DE0AA5D2146AA
:1046F0003846FFF7ABFF601CC4B2142C02DD002467
:10470000781CC7B2701CC6B2A85D0028EED1F0BDFF
:1047100000B585B00020019002900390049000BF86
:104720001248806940F00800104988610846806995
:1047300000F00800009000BF00BF002202210C48DA
:10474000FDF7B2FD022001900120029000200390AD
:104750000220049001A90648FDF70EFC0022022168
:104760000348FDF7A1FD05B000BD000000100240A8
:10477000000801407047000008B508490968C908E9
:104780004FF47A72B1FBF2F14143009100BF00BFD8
:1047900000994A1E00920029F9D108BD1C00002092
:1047A00070477FB505460C460020009001900290AE
:1047B0000390009401900120029069462846FDF77D
:1047C000DBFB7FBD7FB505460C46002000900190C5
:1047D000029003900094012001900220039069460A
:1047E0002846FDF7C9FB7FBD10B5FDF743FF10BD9F
:1047F00000B58FB0282105A8FBF73FFF14216846BC
:10480000FBF73BFF01200590000406900020079075
:104810000120099002200C90C1030D914FF4E0118A
:104820000E9105A8FEF71CF908B1FDF70AFB0F2051
:10483000009002200190002002904FF480600390CD
:104840000020049002216846FDF7E6FF08B1FDF75D
:10485000F8FA0FB000BD704710B50248FEF7DDFC56
:1048600010BD0000C401002010B502681C4B984226
:1048700008D0B0F1804F05D01A4B984202D01A4BA5
:10488000984203D122F070024B681A43144B9842AD
:1048900008D0B0F1804F05D0124B984202D0124B95
:1048A000984203D122F44072CB681A4322F080036D
:1048B0004C6943EA040202608B68C3620B6883623E
:1048C000074B984201D10B690363012343610369DC
:1048D00003F001031BB1036923F00103036110BD61
:1048E000002C0140000400400008004030B501F0F9
:1048F0001F05012404FA05F3046A9C430462046A58
:1049000001F01F0502FA05F52C43046230BD30B5F5
:104910000C46816821F47F4142EA0325254329435F
:10492000816030BD0A46816821F0700142F00703C2
:10493000194381607047000030B5026A056A25F0AE
:10494000010505624368846924F0700424F00304BF
:104950000D682C4322F002028D682A430D4DA842B7
:1049600006D100BF22F00802CD682A4322F00402DB
:10497000084DA84207D123F4807323F400734D69D6
:104980002B438D692B43436084614D68456302620C
:1049900030BD0000002C014030B5026A056A25F0E8
:1049A000100505624368846924F4E04424F44074EB
:1049B0000D6844EA052422F020028D6842EA0512BF
:1049C0000E4DA84207D100BF22F08002CD6842EA16
:1049D000051222F04002094DA84209D123F4806358
:1049E00023F400634D6943EA85038D6943EA850337
:1049F000436084614D688563026230BD002C0140D4
:104A000030B5026A056A25F4807505624368C46999
:104A100024F0700424F003040D682C4322F4007287
:104A20008D6842EA05220F4DA84207D100BF22F44B
:104A30000062CD6842EA052222F48062094DA84254
:104A400009D123F4805323F400534D6943EA05133D
:104A50008D6943EA05134360C4614D68C563026212
:104A600030BD0000002C014030B5036A056A25F412
:104A7000805505624468C26922F4E04222F4407223
:104A80000D6842EA052223F400538D6843EA05339A
:104A9000064DA84204D124F480444D6944EA8514AB
:104AA0004460C2614D680564036230BD002C014062
:104AB00030B50B461446026A056A25F00105056209
:104AC000816921F0F00141EA041122F00A021A433F
:104AD0008161026230BD30B50B461446026A056A38
:104AE00025F010050562816921F4704141EA043125
:104AF00022F0A00242EA03128161026230BD70B569
:104B000005466C6A0020E085E0842046FEF79CFDA7
:104B100070BD00BF00BF02680C3252E8002F22F4C3
:104B2000907102680C3242E80013002BF3D100BFF1
:104B300000BF00BF0268143252E8002F22F00101CA
:104B40000268143242E80013002BF3D100BF016B5E
:104B500001290ED100BF00BF02680C3252E8002FBD
:104B600022F0100102680C3242E80013002BF3D14E
:104B700000BF202180F8421000210163704710B56A
:104B800004462068C06820F040002168C8602020EA
:104B900084F841002046FEF7FAFF002010BDF8B56A
:104BA000044694F84200222875D1A068B0F5805FD1
:104BB0000CD1206950B90025A66A20684068C0F36E
:104BC00008003080A06A801CA06215E0A56A00265B
:104BD000A068B0F5805F03D0A06828B9206918B933
:104BE00020684068287004E02068406800F07F007A
:104BF0002870A06A401CA062E08D401E80B2E08553
:104C0000002846D12068C06820F020002168C860D4
:104C10002068C06820F480702168C86020684069FE
:104C200020F0010021684861202084F84200002023
:104C30006063206B012826D10020206300BF00BFE5
:104C400021680C3151E8001F21F0100021680C315F
:104C500041E80002002AF3D100BF2068006800F09C
:104C6000100010280AD100BF0020009020680068C2
:104C7000009020684068009000BF00BFA18D2046D2
:104C8000FEF7E1FC02E02046FEF7F0FE0020F8BD52
:104C900001E00020FBE70220F9E7000070B50446C0
:104CA0002168096921F44051E268114322681161C9
:104CB0002269A1681143626941EA02052168C96855
:104CC00041F20C62914329432268D160216849690D
:104CD00021F44071A2691143226851612D4A216873
:104CE000914202D1FDF774FE01E0FDF761FE00EB99
:104CF000C00101EB001162689200B1FBF2F100EB20
:104D0000C00202EB001263689B00B2FBF3F2642363
:104D1000B2FBF3F202EBC20303EB0212A1EB82013E
:104D2000322202EB01116422B1FBF2F101F0F00139
:104D300000EBC00202EB001263689B00B2FBF3F2CF
:104D40006423B2FBF3F201EB021200EBC00101EBB2
:104D5000001163689B00B1FBF3F100EBC00303EBB0
:104D600000136668B600B3FBF6F36426B3FBF6F3F4
:104D700003EBC30606EB0313A1EB8301322303EB22
:104D800001116423B1FBF3F101F00F01114422681A
:104D9000916070BD0038014010B5034699629A8554
:104DA000DA8500205864222083F84200186928B16F
:104DB0001868C06840F480701C68E060186840693A
:104DC00040F001001C6860611868C06840F0200075
:104DD0001C68E060002010BD014691F841002128C8
:104DE00028D18868B0F5805F0BD1086948B90A6A94
:104DF0001088C0F308000B685860086A801C0862BD
:104E000005E00B6A581C086218780B685860C88C5B
:104E1000401E80B2C88458B90868C06820F080007D
:104E20000B68D8600868C06840F040000B68D86024
:104E3000002070470220FCE72DE9F84304460D46A8
:104E400017469846089E31E0701C70B3FDF732FAA1
:104E5000A0EB0800B04200D816B90320BDE8F883E3
:104E60002068C06800F00400F8B1802D1ED0402DED
:104E70001CD020680068C0F3C000B0B100BF0020A3
:104E8000009020680068009020684068009000BF93
:104E900000BF2046FFF73DFE0820606400BF0020F1
:104EA00084F8400000BF0120D8E7FFE720680068D1
:104EB0002840A84201D1012000E00020B842C3D020
:104EC0000020CBE710B50248FEF7C0FB10BD000084
:104ED0000C02002000BFFEE7490050EAC12018BFC5
:104EE00004204A0D18BF40F0010040F2FF72B2EBFF
:104EF000515F08BF40F00200012808BF052070473D
:104F000002480068C0F30220704700000CED00E08A
:104F100010B5002804DB0A07130E054A135406E0F7
:104F20000A07140E034A00F00F031B1FD45410BDD0
:104F300000E400E018ED00E030380A2801D201203A
:104F400070470020704700000021054A1268516236
:104F500000BF03490968496A8142FAD370470000DB
:104F6000EC00002070B50124002500F009FB4FF48F
:104F70007A732E2202A10E48FEF7AAFD70BD000032
:104F800041542B4D515454434F4E4E3D302C2273BF
:104F9000682D312D6D7174742E696F742D61706977
:104FA0002E636F6D222C313838332C300D0A0000FF
:104FB0000C0200202DE9F04104460D46174601265B
:104FC00000F0DEFA4FF47A732A4621460248FEF7D3
:104FD0007FFDBDE8F08100000C02002030B5C1B0BB
:104FE00004464FF4807101A8FBF747FB224608A155
:104FF00001A8FBF751F901A8FBF7FEFA85B24FF4BF
:105000007A732A4601A90C48FEF762FD41B030BD13
:1050100041542B4D5154545055423D302C22617413
:105020007472696275746573222C222573222C3088
:105030002C300D0A000000000C02002010B50021E9
:105040000848006800F0CAFD05D80122114606484C
:10505000FDF72AF904E0002201210348FDF724F9B5
:1050600010BD00008C000020000801401CB507485E
:10507000074900231A46CDE900104FF07E5105483C
:1050800000F091F90448054908601CBD0AD7233C8B
:105090000000FA451008002000003442840000207F
:1050A0001CB50D48006800F06DFC0C4908600C4808
:1050B0000268084601680B4800F004F90A490860D4
:1050C0000A480B4900231A46CDE900104FF07E51E3
:1050D000044800F068F91CBD300000208800002062
:1050E00084000020100800208C0000200AD7233CF8
:1050F0000000FA4510B5FEF70FFF00B21049088016
:10510000FEF7C4FF0F4908800D48008868B90846BB
:10511000008850B90CA200210220FFF73BFA0022C0
:1051200010210B48FDF7C0F809E00AA20021022077
:10513000FFF730FA012210210548FDF7B5F810BD40
:1051400000000020020000206E6F726D616C000094
:10515000000801407761726E696E0000FDF796FAF3
:10516000FFF746FBFEF7A0FFFFF746F8FFF77CF8D6
:10517000FFF7B0F8FFF722F8FFF734F9FFF7FCF874
:105180003648FEF763FA36A25E213648FFF712FF73
:10519000FFF78EF93448FDF783FFFEF7F1FEFFF7C6
:1051A000B7FAFEF71DFFFEF7C5FEFCF721FDFCF781
:1051B00041FDFFF75BFF00F0ADF901222B492748C5
:1051C000FFF7EAFDFFF7CEFE47E0FCF7D9FDFFF75A
:1051D00035FF00F083F9FFF763FF00F0B5F9FFF743
:1051E00089FFFCF74DFD224822A2002103680846F2
:1051F000FFF7D0F9214822A2002103680120FFF720
:10520000C9F9FFF7F1F920480068401C1E49086001
:105210000846006801280DD100F01AF900201A494B
:1052200008601A480068012802D100F0F7F801E090
:1052300000F0DAF814480068B0F57A7F0AD100F07F
:1052400007F912480068012802D100F0E7F801E0F0
:1052500000F0CAF86420FCF77BFEB6E70C020020E1
:105260004F4B0000D0660008EC0000200C0000202E
:105270002C00002074656D703A2564003000002019
:1052800068756D693A25640008000020040000205C
:1052900038B504460D461DB900200849087002E0E3
:1052A000402006490870054844700A200223034A3A
:1052B000782100900248FDF7EBF838BD3800002057
:1052C000980000202DE9F04704468A469146C4F82C
:1052D0000C90206960615146484600F0B1FC2061A5
:1052E000A069E061D4E9040100F0AAFCA061216991
:1052F000206800F0A7FB60620021606800F0F2FA0D
:1053000008D02169606800F09DFB0546A16A00F0A5
:105310007BFAA062A169A06800F094FBE062606B78
:1053200000F046FA05460E46A06A00F041FA21F068
:10533000004107462A46334600F004FA0BD200210A
:10534000A06A00F04BFB04D2606B80F00040A062CA
:1053500001E0606BA062D4E9090100F055FA05464E
:10536000E16A00F051FA2063A06B00F021FA0546D3
:105370000E46206B00F01CFA21F0004107462A4639
:10538000334600F0DFF90BD20021206B00F026FB42
:1053900004D2A06B80F00040206301E0A06B20638A
:1053A000206BBDE8F08730B5DDE903450160426060
:1053B00083608463456330BD10B500210848FEF763
:1053C000C7F800224FF480410648FCF76DFF4FF408
:1053D0007A700349096848634000FCF7B9FD10BDC5
:1053E0007C010020000C014000B5A1B0802101A883
:1053F000FBF743F904A101A8FAF74EFF01A8FFF754
:10540000EDFD21B000BD00007B5C22737769746301
:10541000685C223A66616C73657D000000B5A1B0DE
:10542000802101A8FBF729F904A101A8FAF734FFAC
:1054300001A8FFF7D3FD21B000BD00007B5C227303
:1054400077697463685C223A747275657D00000048
:1054500000B5A1B0802101A8FBF70FF90648036849
:10546000064807A1026801A8FAF716FF01A8FFF78E
:10547000B5FD21B000BD0000300000202C00002050
:105480007B5C2274656D70657261747572655C22F7
:105490003A25645C2C5C2268756D69646974795C7A
:1054A000223A25647D00000010B500210848FEF76F
:1054B0004FF8002007490968486300224FF48041F3
:1054C0000548FCF7F1FE4FF47A70FCF741FD10BD82
:1054D000EC0000207C010020000C014010B50021F0
:1054E0000A48006800F07AFA07D200220221084830
:1054F000FCF7DAFEFFF760FF06E001220221044814
:10550000FCF7D2FEFFF7D0FF10BD000080000020A6
:10551000000801401CB50748074900231A46CDE999
:1055200000104FF07E510548FFF73DFF0448054944
:1055300008601CBD0AD7233C0000FA45D4070020B0
:105540000000B8417800002010B50848006800F05D
:1055500019FA0749086007480268084601680648C2
:10556000FFF7B0FE0549086010BD00002C000020C8
:105570007C00002078000020D4070020800000205C
:1055800010B50848FBF738F8044621460548FBF7F4
:1055900052F8002004490880044908800449088022
:1055A00010BD0000D406002074000020720000200E
:1055B0007600002010B500290AD00878002807D00E
:1055C00005487844FBF780F8002801D0002010BD82
:1055D0000248784410BD00008E11000086110000C2
:1055E00010B500290AD00878002807D0054878446B
:1055F000FBF76AF8002801D0002010BD024878446B
:1056000010BD0000721200006A120000491058BF5D
:10561000C1F140415B1058BFC3F140438B42EFF3EF
:105620000080704751EA030C17D41CF5801F58BF47
:10563000BCF5801F00F10680994218BF704708BF73
:105640009042704707D711F5801F58BF13F5801F90
:1056500019D499427047894270471CF5801F08D5BC
:10566000BCF5801FF7D58B4218BF704708BF824238
:1056700070474FF4001C1CEB410F38BF1CEB430F6D
:1056800001D28B42704770B500F008F892244900AF
:105690004FF000514FF08053FFF7B8BF0EF1020EEC
:1056A0002EF0030E5EF8046B364205D4012A43EB5C
:1056B000030515F5001F12D8012841EB010C1CF55C
:1056C000001F0CD80ED14FEAD17C15F5001F0CEB52
:1056D0004C0C0CF1020C08BF4CEBD37C04E04FF0F7
:1056E000080C01E04FEAD37C0CEB4C0526FA05F6DA
:1056F00006F00706B6F1040C06D20EEB860CBDE8E8
:1057000070404CF0010C6047DFE80CF0090B02021E
:105710004FF000414FF00000A1F5002170BD194687
:105720001046012851EB010418BFD4F5001484BFC2
:10573000002001F0004170BD0808A0F500114FEAFB
:105740003101704753EA010C17D41CF5801F58BF74
:10575000BCF5801F00F106808B4218BF704708BF60
:105760008242704707D713F5801F58BF11F5801F7D
:1057700019D48B4270479B4270471CF5801F08D597
:10578000BCF5801FF7D5994218BF704708BF9042FB
:1057900070474FF4001C1CEB430F38BF1CEB410F4C
:1057A00001D2994270470FB40CBC03BCFFF76BBF2A
:1057B00043004FEAD30C4FEA3C0C43401FBF400765
:1057C0000CF1605113F0FE4F70471CF0006F03D1D5
:1057D00000200CF0004170470CF0004343EA507089
:1057E00010B540EACC0000F0AEF900BF0000009216
:1057F0004FEA0001FFF7A0BF4FF000414FF000005B
:10580000A1F500217047000090EA010F48BF81F028
:10581000004100F11C82421A3CBF801A89184FEAED
:10582000D0524FF07F4C1CEA410FA2EBD15318BF6E
:105830009CEA026F00F03B804FF0004C4CEA0020E5
:105840004CEA012121FA03FC10EB0C0C1ED202F1F0
:10585000FF325FEA1C2040EBC25038BF70471CF09B
:105860007F0F4FEA400C18BFBCF17F4F38BF704725
:10587000C3F12003994008BF20F00100BCF17F4F25
:1058800038BF7047A0F1C04000F0A3B94FEA3C0018
:10589000000A40EBC25028BF1CF0FF0F4FEA400C3B
:1058A000E6D018BFBCF17F4F38BF7047EAE79CEAEB
:1058B000026F05D010EA5C0F08BF00F0004070478F
:1058C00010B500F040F900BF64FBBE3E401058BF69
:1058D000C0F14040491058BFC1F140418142EFF34F
:1058E0000080704750EA010C00F113801CF5000F96
:1058F00058BFBCF5000F01D48842704707D710F598
:10590000000F58BF11F5000F15D488427047894227
:1059100070471CF5000F04D5BCF5000FF7D5814288
:1059200070474FF0807C1CEB400F38BF1CEB410FE1
:1059300001D28142704710B500F005F99224490068
:105940004FF000504FF08051FFF7C0BF41000B0EE9
:10595000D3F19E0208D950F400034FEA032323FA3F
:1059600002F048BF4042704710B500F0ECF800BFAD
:1059700049922480002070476FF0004282EA2000A4
:105980007047000010F0004148BF4042B0FA80F379
:1059900010FA03F2C3F19D030BD051EAC35101EB9E
:1059A0001220530638BF704700F1010008BF20F0F5
:1059B00001007047B0FA80F310FA03F2C3F19D03BF
:1059C0000AD0D90501EB1220530638BF704700F109
:1059D000010008BF20F001007047000050EA010CF0
:1059E00000F113801CF5000F58BFBCF5000F01D467
:1059F0008842704707D710F5000F58BF11F5000F08
:105A000015D488427047894270471CF5000F04D5B1
:105A1000BCF5000FF7D5814270474FF0807C1CEB3E
:105A2000400F38BF1CEB410F01D28142704710B5C7
:105A300000F089F8922449004FF000504FF0805157
:105A4000FFF744BF4FF47F0C1CEAD0121EBF1CEAC4
:105A5000D11392EA0C0F93EA0C0F00F0478090EA02
:105A6000010F48BF42F480724FF0004C4CEA002016
:105A70004CEA012102EB0302A0FB0113A2F5000294
:105A8000002918BF43F001035B0028BF4FEA33032E
:105A900042EB22425FEA132C4CEBC2502EBFBCEB10
:105AA000436FB2F57C0F70474FEA036CBCF1004FB7
:105AB00008BF20F00100B2F57C0F38BF70470BD54E
:105AC00082F0FF0212F5803FC8BF704700F1C0406E
:105AD000D8BF00F00040704700F5000C5FEA4C0CA6
